{
    "_format": "hh-sol-artifact-1",
    "contractName": "RoboatNft",
    "sourceName": "contracts/NftContract.sol",
    "abi": [
        {
            "inputs": [],
            "stateMutability": "payable",
            "type": "constructor"
        },
        {
            "anonymous": false,
            "inputs": [
                {
                    "indexed": true,
                    "internalType": "address",
                    "name": "owner",
                    "type": "address"
                },
                {
                    "indexed": true,
                    "internalType": "address",
                    "name": "approved",
                    "type": "address"
                },
                {
                    "indexed": true,
                    "internalType": "uint256",
                    "name": "tokenId",
                    "type": "uint256"
                }
            ],
            "name": "Approval",
            "type": "event"
        },
        {
            "anonymous": false,
            "inputs": [
                {
                    "indexed": true,
                    "internalType": "address",
                    "name": "owner",
                    "type": "address"
                },
                {
                    "indexed": true,
                    "internalType": "address",
                    "name": "operator",
                    "type": "address"
                },
                {
                    "indexed": false,
                    "internalType": "bool",
                    "name": "approved",
                    "type": "bool"
                }
            ],
            "name": "ApprovalForAll",
            "type": "event"
        },
        {
            "anonymous": false,
            "inputs": [
                {
                    "indexed": true,
                    "internalType": "address",
                    "name": "previousOwner",
                    "type": "address"
                },
                {
                    "indexed": true,
                    "internalType": "address",
                    "name": "newOwner",
                    "type": "address"
                }
            ],
            "name": "OwnershipTransferred",
            "type": "event"
        },
        {
            "anonymous": false,
            "inputs": [
                {
                    "indexed": true,
                    "internalType": "address",
                    "name": "from",
                    "type": "address"
                },
                {
                    "indexed": true,
                    "internalType": "address",
                    "name": "to",
                    "type": "address"
                },
                {
                    "indexed": true,
                    "internalType": "uint256",
                    "name": "tokenId",
                    "type": "uint256"
                }
            ],
            "name": "Transfer",
            "type": "event"
        },
        {
            "inputs": [
                {
                    "internalType": "address",
                    "name": "to",
                    "type": "address"
                },
                {
                    "internalType": "uint256",
                    "name": "tokenId",
                    "type": "uint256"
                }
            ],
            "name": "approve",
            "outputs": [],
            "stateMutability": "nonpayable",
            "type": "function"
        },
        {
            "inputs": [
                {
                    "internalType": "address",
                    "name": "owner",
                    "type": "address"
                }
            ],
            "name": "balanceOf",
            "outputs": [
                {
                    "internalType": "uint256",
                    "name": "",
                    "type": "uint256"
                }
            ],
            "stateMutability": "view",
            "type": "function"
        },
        {
            "inputs": [
                {
                    "internalType": "uint256",
                    "name": "tokenId",
                    "type": "uint256"
                }
            ],
            "name": "getApproved",
            "outputs": [
                {
                    "internalType": "address",
                    "name": "",
                    "type": "address"
                }
            ],
            "stateMutability": "view",
            "type": "function"
        },
        {
            "inputs": [
                {
                    "internalType": "address",
                    "name": "owner",
                    "type": "address"
                },
                {
                    "internalType": "address",
                    "name": "operator",
                    "type": "address"
                }
            ],
            "name": "isApprovedForAll",
            "outputs": [
                {
                    "internalType": "bool",
                    "name": "",
                    "type": "bool"
                }
            ],
            "stateMutability": "view",
            "type": "function"
        },
        {
            "inputs": [],
            "name": "maxPerwallet",
            "outputs": [
                {
                    "internalType": "uint256",
                    "name": "",
                    "type": "uint256"
                }
            ],
            "stateMutability": "view",
            "type": "function"
        },
        {
            "inputs": [],
            "name": "maxSupply",
            "outputs": [
                {
                    "internalType": "uint256",
                    "name": "",
                    "type": "uint256"
                }
            ],
            "stateMutability": "view",
            "type": "function"
        },
        {
            "inputs": [
                {
                    "internalType": "uint256",
                    "name": "quantity_",
                    "type": "uint256"
                }
            ],
            "name": "mint",
            "outputs": [],
            "stateMutability": "payable",
            "type": "function"
        },
        {
            "inputs": [],
            "name": "mintPrice",
            "outputs": [
                {
                    "internalType": "uint256",
                    "name": "",
                    "type": "uint256"
                }
            ],
            "stateMutability": "view",
            "type": "function"
        },
        {
            "inputs": [],
            "name": "name",
            "outputs": [
                {
                    "internalType": "string",
                    "name": "",
                    "type": "string"
                }
            ],
            "stateMutability": "view",
            "type": "function"
        },
        {
            "inputs": [],
            "name": "owner",
            "outputs": [
                {
                    "internalType": "address",
                    "name": "",
                    "type": "address"
                }
            ],
            "stateMutability": "view",
            "type": "function"
        },
        {
            "inputs": [
                {
                    "internalType": "uint256",
                    "name": "tokenId",
                    "type": "uint256"
                }
            ],
            "name": "ownerOf",
            "outputs": [
                {
                    "internalType": "address",
                    "name": "",
                    "type": "address"
                }
            ],
            "stateMutability": "view",
            "type": "function"
        },
        {
            "inputs": [],
            "name": "publicMintEnabled",
            "outputs": [
                {
                    "internalType": "bool",
                    "name": "",
                    "type": "bool"
                }
            ],
            "stateMutability": "view",
            "type": "function"
        },
        {
            "inputs": [],
            "name": "renounceOwnership",
            "outputs": [],
            "stateMutability": "nonpayable",
            "type": "function"
        },
        {
            "inputs": [
                {
                    "internalType": "address",
                    "name": "from",
                    "type": "address"
                },
                {
                    "internalType": "address",
                    "name": "to",
                    "type": "address"
                },
                {
                    "internalType": "uint256",
                    "name": "tokenId",
                    "type": "uint256"
                }
            ],
            "name": "safeTransferFrom",
            "outputs": [],
            "stateMutability": "nonpayable",
            "type": "function"
        },
        {
            "inputs": [
                {
                    "internalType": "address",
                    "name": "from",
                    "type": "address"
                },
                {
                    "internalType": "address",
                    "name": "to",
                    "type": "address"
                },
                {
                    "internalType": "uint256",
                    "name": "tokenId",
                    "type": "uint256"
                },
                {
                    "internalType": "bytes",
                    "name": "data",
                    "type": "bytes"
                }
            ],
            "name": "safeTransferFrom",
            "outputs": [],
            "stateMutability": "nonpayable",
            "type": "function"
        },
        {
            "inputs": [
                {
                    "internalType": "address",
                    "name": "operator",
                    "type": "address"
                },
                {
                    "internalType": "bool",
                    "name": "approved",
                    "type": "bool"
                }
            ],
            "name": "setApprovalForAll",
            "outputs": [],
            "stateMutability": "nonpayable",
            "type": "function"
        },
        {
            "inputs": [
                {
                    "internalType": "string",
                    "name": "baseTokenUri_",
                    "type": "string"
                }
            ],
            "name": "setBaseUri",
            "outputs": [],
            "stateMutability": "nonpayable",
            "type": "function"
        },
        {
            "inputs": [
                {
                    "internalType": "bool",
                    "name": "IsPublicMintEnabled_",
                    "type": "bool"
                }
            ],
            "name": "setIsPublicMintEnabled",
            "outputs": [],
            "stateMutability": "nonpayable",
            "type": "function"
        },
        {
            "inputs": [
                {
                    "internalType": "bytes4",
                    "name": "interfaceId",
                    "type": "bytes4"
                }
            ],
            "name": "supportsInterface",
            "outputs": [
                {
                    "internalType": "bool",
                    "name": "",
                    "type": "bool"
                }
            ],
            "stateMutability": "view",
            "type": "function"
        },
        {
            "inputs": [],
            "name": "symbol",
            "outputs": [
                {
                    "internalType": "string",
                    "name": "",
                    "type": "string"
                }
            ],
            "stateMutability": "view",
            "type": "function"
        },
        {
            "inputs": [
                {
                    "internalType": "uint256",
                    "name": "tokenId",
                    "type": "uint256"
                }
            ],
            "name": "tokenURI",
            "outputs": [
                {
                    "internalType": "string",
                    "name": "",
                    "type": "string"
                }
            ],
            "stateMutability": "view",
            "type": "function"
        },
        {
            "inputs": [
                {
                    "internalType": "uint256",
                    "name": "tokenId_",
                    "type": "uint256"
                }
            ],
            "name": "tokrnURI",
            "outputs": [
                {
                    "internalType": "string",
                    "name": "",
                    "type": "string"
                }
            ],
            "stateMutability": "view",
            "type": "function"
        },
        {
            "inputs": [],
            "name": "totalSupply",
            "outputs": [
                {
                    "internalType": "uint256",
                    "name": "",
                    "type": "uint256"
                }
            ],
            "stateMutability": "view",
            "type": "function"
        },
        {
            "inputs": [
                {
                    "internalType": "address",
                    "name": "from",
                    "type": "address"
                },
                {
                    "internalType": "address",
                    "name": "to",
                    "type": "address"
                },
                {
                    "internalType": "uint256",
                    "name": "tokenId",
                    "type": "uint256"
                }
            ],
            "name": "transferFrom",
            "outputs": [],
            "stateMutability": "nonpayable",
            "type": "function"
        },
        {
            "inputs": [
                {
                    "internalType": "address",
                    "name": "newOwner",
                    "type": "address"
                }
            ],
            "name": "transferOwnership",
            "outputs": [],
            "stateMutability": "nonpayable",
            "type": "function"
        },
        {
            "inputs": [
                {
                    "internalType": "address",
                    "name": "",
                    "type": "address"
                }
            ],
            "name": "walletMints",
            "outputs": [
                {
                    "internalType": "uint256",
                    "name": "",
                    "type": "uint256"
                }
            ],
            "stateMutability": "view",
            "type": "function"
        },
        {
            "inputs": [],
            "name": "withdraw",
            "outputs": [],
            "stateMutability": "nonpayable",
            "type": "function"
        },
        {
            "inputs": [],
            "name": "withdrawWallet",
            "outputs": [
                {
                    "internalType": "address payable",
                    "name": "",
                    "type": "address"
                }
            ],
            "stateMutability": "view",
            "type": "function"
        }
    ],
    "bytecode": "0x60806040526040518060400160405280600581526020017f526f626f740000000000000000000000000000000000000000000000000000008152506040518060400160405280600281526020017f524e00000000000000000000000000000000000000000000000000000000000081525081600090816200008191906200042b565b5080600190816200009391906200042b565b505050620000b6620000aa620000e360201b60201c565b620000eb60201b60201c565b66470de4df82000060078190555060006008819055506103e86009819055506003600a8190555062000512565b600033905090565b6000600660009054906101000a900473ffffffffffffffffffffffffffffffffffffffff16905081600660006101000a81548173ffffffffffffffffffffffffffffffffffffffff021916908373ffffffffffffffffffffffffffffffffffffffff1602179055508173ffffffffffffffffffffffffffffffffffffffff168173ffffffffffffffffffffffffffffffffffffffff167f8be0079c531659141344cd1fd0a4f28419497f9722a3daafe3b4186f6b6457e060405160405180910390a35050565b600081519050919050565b7f4e487b7100000000000000000000000000000000000000000000000000000000600052604160045260246000fd5b7f4e487b7100000000000000000000000000000000000000000000000000000000600052602260045260246000fd5b600060028204905060018216806200023357607f821691505b602082108103620002495762000248620001eb565b5b50919050565b60008190508160005260206000209050919050565b60006020601f8301049050919050565b600082821b905092915050565b600060088302620002b37fffffffffffffffffffffffffffffffffffffffffffffffffffffffffffffffff8262000274565b620002bf868362000274565b95508019841693508086168417925050509392505050565b6000819050919050565b6000819050919050565b60006200030c620003066200030084620002d7565b620002e1565b620002d7565b9050919050565b6000819050919050565b6200032883620002eb565b62000340620003378262000313565b84845462000281565b825550505050565b600090565b6200035762000348565b620003648184846200031d565b505050565b5b818110156200038c57620003806000826200034d565b6001810190506200036a565b5050565b601f821115620003db57620003a5816200024f565b620003b08462000264565b81016020851015620003c0578190505b620003d8620003cf8562000264565b83018262000369565b50505b505050565b600082821c905092915050565b60006200040060001984600802620003e0565b1980831691505092915050565b60006200041b8383620003ed565b9150826002028217905092915050565b6200043682620001b1565b67ffffffffffffffff811115620004525762000451620001bc565b5b6200045e82546200021a565b6200046b82828562000390565b600060209050601f831160018114620004a357600084156200048e578287015190505b6200049a85826200040d565b8655506200050a565b601f198416620004b3866200024f565b60005b82811015620004dd57848901518255600182019150602085019450602081019050620004b6565b86831015620004fd5784890151620004f9601f891682620003ed565b8355505b6001600288020188555050505b505050505050565b6137bc80620005226000396000f3fe6080604052600436106101b75760003560e01c806385d178f4116100ec578063b88d4fde1161008a578063e501c1fd11610064578063e501c1fd146105d9578063e985e9c514610616578063f0293fd314610653578063f2fde38b14610690576101b7565b8063b88d4fde14610548578063c87b56dd14610571578063d5abeb01146105ae576101b7565b8063a0712d68116100c6578063a0712d68146104af578063a0bcfc7f146104cb578063a22cb465146104f4578063b570207d1461051d576101b7565b806385d178f41461042e5780638da5cb5b1461045957806395d89b4114610484576101b7565b806323b872dd116101595780636352211e116101335780636352211e146103725780636817c76c146103af57806370a08231146103da578063715018a614610417576101b7565b806323b872dd146103095780633ccfd60b1461033257806342842e0e14610349576101b7565b8063095ea7b311610195578063095ea7b3146102615780630f4161aa1461028a57806318160ddd146102b55780632373ac22146102e0576101b7565b806301ffc9a7146101bc57806306fdde03146101f9578063081812fc14610224575b600080fd5b3480156101c857600080fd5b506101e360048036038101906101de9190612164565b6106b9565b6040516101f091906121ac565b60405180910390f35b34801561020557600080fd5b5061020e61079b565b60405161021b9190612257565b60405180910390f35b34801561023057600080fd5b5061024b600480360381019061024691906122af565b61082d565b604051610258919061231d565b60405180910390f35b34801561026d57600080fd5b5061028860048036038101906102839190612364565b610873565b005b34801561029657600080fd5b5061029f61098a565b6040516102ac91906121ac565b60405180910390f35b3480156102c157600080fd5b506102ca61099d565b6040516102d791906123b3565b60405180910390f35b3480156102ec57600080fd5b50610307600480360381019061030291906123fa565b6109a3565b005b34801561031557600080fd5b50610330600480360381019061032b9190612427565b6109c8565b005b34801561033e57600080fd5b50610347610a28565b005b34801561035557600080fd5b50610370600480360381019061036b9190612427565b610b01565b005b34801561037e57600080fd5b50610399600480360381019061039491906122af565b610b21565b6040516103a6919061231d565b60405180910390f35b3480156103bb57600080fd5b506103c4610ba7565b6040516103d191906123b3565b60405180910390f35b3480156103e657600080fd5b5061040160048036038101906103fc919061247a565b610bad565b60405161040e91906123b3565b60405180910390f35b34801561042357600080fd5b5061042c610c64565b005b34801561043a57600080fd5b50610443610c78565b60405161045091906124c8565b60405180910390f35b34801561046557600080fd5b5061046e610c9e565b60405161047b919061231d565b60405180910390f35b34801561049057600080fd5b50610499610cc8565b6040516104a69190612257565b60405180910390f35b6104c960048036038101906104c491906122af565b610d5a565b005b3480156104d757600080fd5b506104f260048036038101906104ed9190612548565b610f31565b005b34801561050057600080fd5b5061051b60048036038101906105169190612595565b610f4f565b005b34801561052957600080fd5b50610532610f65565b60405161053f91906123b3565b60405180910390f35b34801561055457600080fd5b5061056f600480360381019061056a9190612705565b610f6b565b005b34801561057d57600080fd5b50610598600480360381019061059391906122af565b610fcd565b6040516105a59190612257565b60405180910390f35b3480156105ba57600080fd5b506105c3611035565b6040516105d091906123b3565b60405180910390f35b3480156105e557600080fd5b5061060060048036038101906105fb91906122af565b61103b565b60405161060d9190612257565b60405180910390f35b34801561062257600080fd5b5061063d60048036038101906106389190612788565b6110b7565b60405161064a91906121ac565b60405180910390f35b34801561065f57600080fd5b5061067a6004803603810190610675919061247a565b61114b565b60405161068791906123b3565b60405180910390f35b34801561069c57600080fd5b506106b760048036038101906106b2919061247a565b611163565b005b60007f80ac58cd000000000000000000000000000000000000000000000000000000007bffffffffffffffffffffffffffffffffffffffffffffffffffffffff1916827bffffffffffffffffffffffffffffffffffffffffffffffffffffffff1916148061078457507f5b5e139f000000000000000000000000000000000000000000000000000000007bffffffffffffffffffffffffffffffffffffffffffffffffffffffff1916827bffffffffffffffffffffffffffffffffffffffffffffffffffffffff1916145b806107945750610793826111e6565b5b9050919050565b6060600080546107aa906127f7565b80601f01602080910402602001604051908101604052809291908181526020018280546107d6906127f7565b80156108235780601f106107f857610100808354040283529160200191610823565b820191906000526020600020905b81548152906001019060200180831161080657829003601f168201915b5050505050905090565b600061083882611250565b6004600083815260200190815260200160002060009054906101000a900473ffffffffffffffffffffffffffffffffffffffff169050919050565b600061087e82610b21565b90508073ffffffffffffffffffffffffffffffffffffffff168373ffffffffffffffffffffffffffffffffffffffff16036108ee576040517f08c379a00000000000000000000000000000000000000000000000000000000081526004016108e59061289a565b60405180910390fd5b8073ffffffffffffffffffffffffffffffffffffffff1661090d61129b565b73ffffffffffffffffffffffffffffffffffffffff16148061093c575061093b8161093661129b565b6110b7565b5b61097b576040517f08c379a00000000000000000000000000000000000000000000000000000000081526004016109729061292c565b60405180910390fd5b61098583836112a3565b505050565b600b60009054906101000a900460ff1681565b60085481565b6109ab61135c565b80600b60006101000a81548160ff02191690831515021790555050565b6109d96109d361129b565b826113da565b610a18576040517f08c379a0000000000000000000000000000000000000000000000000000000008152600401610a0f906129be565b60405180910390fd5b610a2383838361146f565b505050565b610a3061135c565b6000600d60009054906101000a900473ffffffffffffffffffffffffffffffffffffffff1673ffffffffffffffffffffffffffffffffffffffff1647604051610a7890612a0f565b60006040518083038185875af1925050503d8060008114610ab5576040519150601f19603f3d011682016040523d82523d6000602084013e610aba565b606091505b5050905080610afe576040517f08c379a0000000000000000000000000000000000000000000000000000000008152600401610af590612a70565b60405180910390fd5b50565b610b1c83838360405180602001604052806000815250610f6b565b505050565b600080610b2d83611768565b9050600073ffffffffffffffffffffffffffffffffffffffff168173ffffffffffffffffffffffffffffffffffffffff1603610b9e576040517f08c379a0000000000000000000000000000000000000000000000000000000008152600401610b9590612adc565b60405180910390fd5b80915050919050565b60075481565b60008073ffffffffffffffffffffffffffffffffffffffff168273ffffffffffffffffffffffffffffffffffffffff1603610c1d576040517f08c379a0000000000000000000000000000000000000000000000000000000008152600401610c1490612b6e565b60405180910390fd5b600360008373ffffffffffffffffffffffffffffffffffffffff1673ffffffffffffffffffffffffffffffffffffffff168152602001908152602001600020549050919050565b610c6c61135c565b610c7660006117a5565b565b600d60009054906101000a900473ffffffffffffffffffffffffffffffffffffffff1681565b6000600660009054906101000a900473ffffffffffffffffffffffffffffffffffffffff16905090565b606060018054610cd7906127f7565b80601f0160208091040260200160405190810160405280929190818152602001828054610d03906127f7565b8015610d505780601f10610d2557610100808354040283529160200191610d50565b820191906000526020600020905b815481529060010190602001808311610d3357829003601f168201915b5050505050905090565b600b60009054906101000a900460ff16610da9576040517f08c379a0000000000000000000000000000000000000000000000000000000008152600401610da090612bda565b60405180910390fd5b60075481610db79190612c29565b3414610df8576040517f08c379a0000000000000000000000000000000000000000000000000000000008152600401610def90612cb7565b60405180910390fd5b60095481600854610e099190612cd7565b1115610e4a576040517f08c379a0000000000000000000000000000000000000000000000000000000008152600401610e4190612d57565b60405180910390fd5b600a5481600e60003373ffffffffffffffffffffffffffffffffffffffff1673ffffffffffffffffffffffffffffffffffffffff16815260200190815260200160002054610e989190612cd7565b1115610ed9576040517f08c379a0000000000000000000000000000000000000000000000000000000008152600401610ed090612dc3565b60405180910390fd5b60005b81811015610f2d5760006001600854610ef59190612cd7565b905060086000815480929190610f0a90612de3565b9190505550610f19338261186b565b508080610f2590612de3565b915050610edc565b5050565b610f3961135c565b8181600c9182610f4a929190612fe2565b505050565b610f61610f5a61129b565b8383611889565b5050565b600a5481565b610f7c610f7661129b565b836113da565b610fbb576040517f08c379a0000000000000000000000000000000000000000000000000000000008152600401610fb2906129be565b60405180910390fd5b610fc7848484846119f5565b50505050565b6060610fd882611250565b6000610fe2611a51565b90506000815111611002576040518060200160405280600081525061102d565b8061100c84611a68565b60405160200161101d9291906130ee565b6040516020818303038152906040525b915050919050565b60095481565b606061104682611b36565b611085576040517f08c379a000000000000000000000000000000000000000000000000000000000815260040161107c9061315e565b60405180910390fd5b600c61109083611a68565b6040516020016110a192919061324d565b6040516020818303038152906040529050919050565b6000600560008473ffffffffffffffffffffffffffffffffffffffff1673ffffffffffffffffffffffffffffffffffffffff16815260200190815260200160002060008373ffffffffffffffffffffffffffffffffffffffff1673ffffffffffffffffffffffffffffffffffffffff16815260200190815260200160002060009054906101000a900460ff16905092915050565b600e6020528060005260406000206000915090505481565b61116b61135c565b600073ffffffffffffffffffffffffffffffffffffffff168173ffffffffffffffffffffffffffffffffffffffff16036111da576040517f08c379a00000000000000000000000000000000000000000000000000000000081526004016111d1906132ee565b60405180910390fd5b6111e3816117a5565b50565b60007f01ffc9a7000000000000000000000000000000000000000000000000000000007bffffffffffffffffffffffffffffffffffffffffffffffffffffffff1916827bffffffffffffffffffffffffffffffffffffffffffffffffffffffff1916149050919050565b61125981611b36565b611298576040517f08c379a000000000000000000000000000000000000000000000000000000000815260040161128f90612adc565b60405180910390fd5b50565b600033905090565b816004600083815260200190815260200160002060006101000a81548173ffffffffffffffffffffffffffffffffffffffff021916908373ffffffffffffffffffffffffffffffffffffffff160217905550808273ffffffffffffffffffffffffffffffffffffffff1661131683610b21565b73ffffffffffffffffffffffffffffffffffffffff167f8c5be1e5ebec7d5bd14f71427d1e84f3dd0314c0f7b2291e5b200ac8c7c3b92560405160405180910390a45050565b61136461129b565b73ffffffffffffffffffffffffffffffffffffffff16611382610c9e565b73ffffffffffffffffffffffffffffffffffffffff16146113d8576040517f08c379a00000000000000000000000000000000000000000000000000000000081526004016113cf9061335a565b60405180910390fd5b565b6000806113e683610b21565b90508073ffffffffffffffffffffffffffffffffffffffff168473ffffffffffffffffffffffffffffffffffffffff161480611428575061142781856110b7565b5b8061146657508373ffffffffffffffffffffffffffffffffffffffff1661144e8461082d565b73ffffffffffffffffffffffffffffffffffffffff16145b91505092915050565b8273ffffffffffffffffffffffffffffffffffffffff1661148f82610b21565b73ffffffffffffffffffffffffffffffffffffffff16146114e5576040517f08c379a00000000000000000000000000000000000000000000000000000000081526004016114dc906133ec565b60405180910390fd5b600073ffffffffffffffffffffffffffffffffffffffff168273ffffffffffffffffffffffffffffffffffffffff1603611554576040517f08c379a000000000000000000000000000000000000000000000000000000000815260040161154b9061347e565b60405180910390fd5b6115618383836001611b77565b8273ffffffffffffffffffffffffffffffffffffffff1661158182610b21565b73ffffffffffffffffffffffffffffffffffffffff16146115d7576040517f08c379a00000000000000000000000000000000000000000000000000000000081526004016115ce906133ec565b60405180910390fd5b6004600082815260200190815260200160002060006101000a81549073ffffffffffffffffffffffffffffffffffffffff02191690556001600360008573ffffffffffffffffffffffffffffffffffffffff1673ffffffffffffffffffffffffffffffffffffffff168152602001908152602001600020600082825403925050819055506001600360008473ffffffffffffffffffffffffffffffffffffffff1673ffffffffffffffffffffffffffffffffffffffff16815260200190815260200160002060008282540192505081905550816002600083815260200190815260200160002060006101000a81548173ffffffffffffffffffffffffffffffffffffffff021916908373ffffffffffffffffffffffffffffffffffffffff160217905550808273ffffffffffffffffffffffffffffffffffffffff168473ffffffffffffffffffffffffffffffffffffffff167fddf252ad1be2c89b69c2b068fc378daa952ba7f163c4a11628f55a4df523b3ef60405160405180910390a46117638383836001611b7d565b505050565b60006002600083815260200190815260200160002060009054906101000a900473ffffffffffffffffffffffffffffffffffffffff169050919050565b6000600660009054906101000a900473ffffffffffffffffffffffffffffffffffffffff16905081600660006101000a81548173ffffffffffffffffffffffffffffffffffffffff021916908373ffffffffffffffffffffffffffffffffffffffff1602179055508173ffffffffffffffffffffffffffffffffffffffff168173ffffffffffffffffffffffffffffffffffffffff167f8be0079c531659141344cd1fd0a4f28419497f9722a3daafe3b4186f6b6457e060405160405180910390a35050565b611885828260405180602001604052806000815250611b83565b5050565b8173ffffffffffffffffffffffffffffffffffffffff168373ffffffffffffffffffffffffffffffffffffffff16036118f7576040517f08c379a00000000000000000000000000000000000000000000000000000000081526004016118ee906134ea565b60405180910390fd5b80600560008573ffffffffffffffffffffffffffffffffffffffff1673ffffffffffffffffffffffffffffffffffffffff16815260200190815260200160002060008473ffffffffffffffffffffffffffffffffffffffff1673ffffffffffffffffffffffffffffffffffffffff16815260200190815260200160002060006101000a81548160ff0219169083151502179055508173ffffffffffffffffffffffffffffffffffffffff168373ffffffffffffffffffffffffffffffffffffffff167f17307eab39ab6107e8899845ad3d59bd9653f200f220920489ca2b5937696c31836040516119e891906121ac565b60405180910390a3505050565b611a0084848461146f565b611a0c84848484611bde565b611a4b576040517f08c379a0000000000000000000000000000000000000000000000000000000008152600401611a429061357c565b60405180910390fd5b50505050565b606060405180602001604052806000815250905090565b606060006001611a7784611d65565b01905060008167ffffffffffffffff811115611a9657611a956125da565b5b6040519080825280601f01601f191660200182016040528015611ac85781602001600182028036833780820191505090505b509050600082602001820190505b600115611b2b578080600190039150507f3031323334353637383961626364656600000000000000000000000000000000600a86061a8153600a8581611b1f57611b1e61359c565b5b04945060008503611ad6575b819350505050919050565b60008073ffffffffffffffffffffffffffffffffffffffff16611b5883611768565b73ffffffffffffffffffffffffffffffffffffffff1614159050919050565b50505050565b50505050565b611b8d8383611eb8565b611b9a6000848484611bde565b611bd9576040517f08c379a0000000000000000000000000000000000000000000000000000000008152600401611bd09061357c565b60405180910390fd5b505050565b6000611bff8473ffffffffffffffffffffffffffffffffffffffff166120d5565b15611d58578373ffffffffffffffffffffffffffffffffffffffff1663150b7a02611c2861129b565b8786866040518563ffffffff1660e01b8152600401611c4a9493929190613620565b6020604051808303816000875af1925050508015611c8657506040513d601f19601f82011682018060405250810190611c839190613681565b60015b611d08573d8060008114611cb6576040519150601f19603f3d011682016040523d82523d6000602084013e611cbb565b606091505b506000815103611d00576040517f08c379a0000000000000000000000000000000000000000000000000000000008152600401611cf79061357c565b60405180910390fd5b805181602001fd5b63150b7a0260e01b7bffffffffffffffffffffffffffffffffffffffffffffffffffffffff1916817bffffffffffffffffffffffffffffffffffffffffffffffffffffffff191614915050611d5d565b600190505b949350505050565b600080600090507a184f03e93ff9f4daa797ed6e38ed64bf6a1f0100000000000000008310611dc3577a184f03e93ff9f4daa797ed6e38ed64bf6a1f0100000000000000008381611db957611db861359c565b5b0492506040810190505b6d04ee2d6d415b85acef81000000008310611e00576d04ee2d6d415b85acef81000000008381611df657611df561359c565b5b0492506020810190505b662386f26fc100008310611e2f57662386f26fc100008381611e2557611e2461359c565b5b0492506010810190505b6305f5e1008310611e58576305f5e1008381611e4e57611e4d61359c565b5b0492506008810190505b6127108310611e7d576127108381611e7357611e7261359c565b5b0492506004810190505b60648310611ea05760648381611e9657611e9561359c565b5b0492506002810190505b600a8310611eaf576001810190505b80915050919050565b600073ffffffffffffffffffffffffffffffffffffffff168273ffffffffffffffffffffffffffffffffffffffff1603611f27576040517f08c379a0000000000000000000000000000000000000000000000000000000008152600401611f1e906136fa565b60405180910390fd5b611f3081611b36565b15611f70576040517f08c379a0000000000000000000000000000000000000000000000000000000008152600401611f6790613766565b60405180910390fd5b611f7e600083836001611b77565b611f8781611b36565b15611fc7576040517f08c379a0000000000000000000000000000000000000000000000000000000008152600401611fbe90613766565b60405180910390fd5b6001600360008473ffffffffffffffffffffffffffffffffffffffff1673ffffffffffffffffffffffffffffffffffffffff16815260200190815260200160002060008282540192505081905550816002600083815260200190815260200160002060006101000a81548173ffffffffffffffffffffffffffffffffffffffff021916908373ffffffffffffffffffffffffffffffffffffffff160217905550808273ffffffffffffffffffffffffffffffffffffffff16600073ffffffffffffffffffffffffffffffffffffffff167fddf252ad1be2c89b69c2b068fc378daa952ba7f163c4a11628f55a4df523b3ef60405160405180910390a46120d1600083836001611b7d565b5050565b6000808273ffffffffffffffffffffffffffffffffffffffff163b119050919050565b6000604051905090565b600080fd5b600080fd5b60007fffffffff0000000000000000000000000000000000000000000000000000000082169050919050565b6121418161210c565b811461214c57600080fd5b50565b60008135905061215e81612138565b92915050565b60006020828403121561217a57612179612102565b5b60006121888482850161214f565b91505092915050565b60008115159050919050565b6121a681612191565b82525050565b60006020820190506121c1600083018461219d565b92915050565b600081519050919050565b600082825260208201905092915050565b60005b838110156122015780820151818401526020810190506121e6565b60008484015250505050565b6000601f19601f8301169050919050565b6000612229826121c7565b61223381856121d2565b93506122438185602086016121e3565b61224c8161220d565b840191505092915050565b60006020820190508181036000830152612271818461221e565b905092915050565b6000819050919050565b61228c81612279565b811461229757600080fd5b50565b6000813590506122a981612283565b92915050565b6000602082840312156122c5576122c4612102565b5b60006122d38482850161229a565b91505092915050565b600073ffffffffffffffffffffffffffffffffffffffff82169050919050565b6000612307826122dc565b9050919050565b612317816122fc565b82525050565b6000602082019050612332600083018461230e565b92915050565b612341816122fc565b811461234c57600080fd5b50565b60008135905061235e81612338565b92915050565b6000806040838503121561237b5761237a612102565b5b60006123898582860161234f565b925050602061239a8582860161229a565b9150509250929050565b6123ad81612279565b82525050565b60006020820190506123c860008301846123a4565b92915050565b6123d781612191565b81146123e257600080fd5b50565b6000813590506123f4816123ce565b92915050565b6000602082840312156124105761240f612102565b5b600061241e848285016123e5565b91505092915050565b6000806000606084860312156124405761243f612102565b5b600061244e8682870161234f565b935050602061245f8682870161234f565b92505060406124708682870161229a565b9150509250925092565b6000602082840312156124905761248f612102565b5b600061249e8482850161234f565b91505092915050565b60006124b2826122dc565b9050919050565b6124c2816124a7565b82525050565b60006020820190506124dd60008301846124b9565b92915050565b600080fd5b600080fd5b600080fd5b60008083601f840112612508576125076124e3565b5b8235905067ffffffffffffffff811115612525576125246124e8565b5b602083019150836001820283011115612541576125406124ed565b5b9250929050565b6000806020838503121561255f5761255e612102565b5b600083013567ffffffffffffffff81111561257d5761257c612107565b5b612589858286016124f2565b92509250509250929050565b600080604083850312156125ac576125ab612102565b5b60006125ba8582860161234f565b92505060206125cb858286016123e5565b9150509250929050565b600080fd5b7f4e487b7100000000000000000000000000000000000000000000000000000000600052604160045260246000fd5b6126128261220d565b810181811067ffffffffffffffff82111715612631576126306125da565b5b80604052505050565b60006126446120f8565b90506126508282612609565b919050565b600067ffffffffffffffff8211156126705761266f6125da565b5b6126798261220d565b9050602081019050919050565b82818337600083830152505050565b60006126a86126a384612655565b61263a565b9050828152602081018484840111156126c4576126c36125d5565b5b6126cf848285612686565b509392505050565b600082601f8301126126ec576126eb6124e3565b5b81356126fc848260208601612695565b91505092915050565b6000806000806080858703121561271f5761271e612102565b5b600061272d8782880161234f565b945050602061273e8782880161234f565b935050604061274f8782880161229a565b925050606085013567ffffffffffffffff8111156127705761276f612107565b5b61277c878288016126d7565b91505092959194509250565b6000806040838503121561279f5761279e612102565b5b60006127ad8582860161234f565b92505060206127be8582860161234f565b9150509250929050565b7f4e487b7100000000000000000000000000000000000000000000000000000000600052602260045260246000fd5b6000600282049050600182168061280f57607f821691505b602082108103612822576128216127c8565b5b50919050565b7f4552433732313a20617070726f76616c20746f2063757272656e74206f776e6560008201527f7200000000000000000000000000000000000000000000000000000000000000602082015250565b60006128846021836121d2565b915061288f82612828565b604082019050919050565b600060208201905081810360008301526128b381612877565b9050919050565b7f4552433732313a20617070726f76652063616c6c6572206973206e6f7420746f60008201527f6b656e206f776e6572206f7220617070726f76656420666f7220616c6c000000602082015250565b6000612916603d836121d2565b9150612921826128ba565b604082019050919050565b6000602082019050818103600083015261294581612909565b9050919050565b7f4552433732313a2063616c6c6572206973206e6f7420746f6b656e206f776e6560008201527f72206f7220617070726f76656400000000000000000000000000000000000000602082015250565b60006129a8602d836121d2565b91506129b38261294c565b604082019050919050565b600060208201905081810360008301526129d78161299b565b9050919050565b600081905092915050565b50565b60006129f96000836129de565b9150612a04826129e9565b600082019050919050565b6000612a1a826129ec565b9150819050919050565b7f77697468647277206661696c6564000000000000000000000000000000000000600082015250565b6000612a5a600e836121d2565b9150612a6582612a24565b602082019050919050565b60006020820190508181036000830152612a8981612a4d565b9050919050565b7f4552433732313a20696e76616c696420746f6b656e2049440000000000000000600082015250565b6000612ac66018836121d2565b9150612ad182612a90565b602082019050919050565b60006020820190508181036000830152612af581612ab9565b9050919050565b7f4552433732313a2061646472657373207a65726f206973206e6f74206120766160008201527f6c6964206f776e65720000000000000000000000000000000000000000000000602082015250565b6000612b586029836121d2565b9150612b6382612afc565b604082019050919050565b60006020820190508181036000830152612b8781612b4b565b9050919050565b7f6d696e74696e67206973206e6f7420656e61626c656400000000000000000000600082015250565b6000612bc46016836121d2565b9150612bcf82612b8e565b602082019050919050565b60006020820190508181036000830152612bf381612bb7565b9050919050565b7f4e487b7100000000000000000000000000000000000000000000000000000000600052601160045260246000fd5b6000612c3482612279565b9150612c3f83612279565b9250828202612c4d81612279565b91508282048414831517612c6457612c63612bfa565b5b5092915050565b7f57726f6e67204d696e7400000000000000000000000000000000000000000000600082015250565b6000612ca1600a836121d2565b9150612cac82612c6b565b602082019050919050565b60006020820190508181036000830152612cd081612c94565b9050919050565b6000612ce282612279565b9150612ced83612279565b9250828201905080821115612d0557612d04612bfa565b5b92915050565b7f736f6c64206f7574000000000000000000000000000000000000000000000000600082015250565b6000612d416008836121d2565b9150612d4c82612d0b565b602082019050919050565b60006020820190508181036000830152612d7081612d34565b9050919050565b7f4d696e7420497320457863656564656400000000000000000000000000000000600082015250565b6000612dad6010836121d2565b9150612db882612d77565b602082019050919050565b60006020820190508181036000830152612ddc81612da0565b9050919050565b6000612dee82612279565b91507fffffffffffffffffffffffffffffffffffffffffffffffffffffffffffffffff8203612e2057612e1f612bfa565b5b600182019050919050565b600082905092915050565b60008190508160005260206000209050919050565b60006020601f8301049050919050565b600082821b905092915050565b600060088302612e987fffffffffffffffffffffffffffffffffffffffffffffffffffffffffffffffff82612e5b565b612ea28683612e5b565b95508019841693508086168417925050509392505050565b6000819050919050565b6000612edf612eda612ed584612279565b612eba565b612279565b9050919050565b6000819050919050565b612ef983612ec4565b612f0d612f0582612ee6565b848454612e68565b825550505050565b600090565b612f22612f15565b612f2d818484612ef0565b505050565b5b81811015612f5157612f46600082612f1a565b600181019050612f33565b5050565b601f821115612f9657612f6781612e36565b612f7084612e4b565b81016020851015612f7f578190505b612f93612f8b85612e4b565b830182612f32565b50505b505050565b600082821c905092915050565b6000612fb960001984600802612f9b565b1980831691505092915050565b6000612fd28383612fa8565b9150826002028217905092915050565b612fec8383612e2b565b67ffffffffffffffff811115613005576130046125da565b5b61300f82546127f7565b61301a828285612f55565b6000601f8311600181146130495760008415613037578287013590505b6130418582612fc6565b8655506130a9565b601f19841661305786612e36565b60005b8281101561307f5784890135825560018201915060208501945060208101905061305a565b8683101561309c5784890135613098601f891682612fa8565b8355505b6001600288020188555050505b50505050505050565b600081905092915050565b60006130c8826121c7565b6130d281856130b2565b93506130e28185602086016121e3565b80840191505092915050565b60006130fa82856130bd565b915061310682846130bd565b91508190509392505050565b7f546f6b656e20646f6573206e6f74206578697374210000000000000000000000600082015250565b60006131486015836121d2565b915061315382613112565b602082019050919050565b600060208201905081810360008301526131778161313b565b9050919050565b6000815461318b816127f7565b61319581866130b2565b945060018216600081146131b057600181146131c5576131f8565b60ff19831686528115158202860193506131f8565b6131ce85612e36565b60005b838110156131f0578154818901526001820191506020810190506131d1565b838801955050505b50505092915050565b7f2e6a736f6e000000000000000000000000000000000000000000000000000000600082015250565b60006132376005836130b2565b915061324282613201565b600582019050919050565b6000613259828561317e565b915061326582846130bd565b91506132708261322a565b91508190509392505050565b7f4f776e61626c653a206e6577206f776e657220697320746865207a65726f206160008201527f6464726573730000000000000000000000000000000000000000000000000000602082015250565b60006132d86026836121d2565b91506132e38261327c565b604082019050919050565b60006020820190508181036000830152613307816132cb565b9050919050565b7f4f776e61626c653a2063616c6c6572206973206e6f7420746865206f776e6572600082015250565b60006133446020836121d2565b915061334f8261330e565b602082019050919050565b6000602082019050818103600083015261337381613337565b9050919050565b7f4552433732313a207472616e736665722066726f6d20696e636f72726563742060008201527f6f776e6572000000000000000000000000000000000000000000000000000000602082015250565b60006133d66025836121d2565b91506133e18261337a565b604082019050919050565b60006020820190508181036000830152613405816133c9565b9050919050565b7f4552433732313a207472616e7366657220746f20746865207a65726f2061646460008201527f7265737300000000000000000000000000000000000000000000000000000000602082015250565b60006134686024836121d2565b91506134738261340c565b604082019050919050565b600060208201905081810360008301526134978161345b565b9050919050565b7f4552433732313a20617070726f766520746f2063616c6c657200000000000000600082015250565b60006134d46019836121d2565b91506134df8261349e565b602082019050919050565b60006020820190508181036000830152613503816134c7565b9050919050565b7f4552433732313a207472616e7366657220746f206e6f6e20455243373231526560008201527f63656976657220696d706c656d656e7465720000000000000000000000000000602082015250565b60006135666032836121d2565b91506135718261350a565b604082019050919050565b6000602082019050818103600083015261359581613559565b9050919050565b7f4e487b7100000000000000000000000000000000000000000000000000000000600052601260045260246000fd5b600081519050919050565b600082825260208201905092915050565b60006135f2826135cb565b6135fc81856135d6565b935061360c8185602086016121e3565b6136158161220d565b840191505092915050565b6000608082019050613635600083018761230e565b613642602083018661230e565b61364f60408301856123a4565b818103606083015261366181846135e7565b905095945050505050565b60008151905061367b81612138565b92915050565b60006020828403121561369757613696612102565b5b60006136a58482850161366c565b91505092915050565b7f4552433732313a206d696e7420746f20746865207a65726f2061646472657373600082015250565b60006136e46020836121d2565b91506136ef826136ae565b602082019050919050565b60006020820190508181036000830152613713816136d7565b9050919050565b7f4552433732313a20746f6b656e20616c7265616479206d696e74656400000000600082015250565b6000613750601c836121d2565b915061375b8261371a565b602082019050919050565b6000602082019050818103600083015261377f81613743565b905091905056fea26469706673582212204a86a29fded46476d66313ca2fc4a7538858435993bbd242f50008d5dad1ae4764736f6c63430008130033",
    "linkReferences": {},
    "deployedLinkReferences": {}
}